{
  "contractName": "ThroneERC20",
  "abi": [
    {
      "inputs": [
        {
          "internalType": "string",
          "name": "name",
          "type": "string"
        },
        {
          "internalType": "string",
          "name": "symbol",
          "type": "string"
        }
      ],
      "stateMutability": "nonpayable",
      "type": "constructor"
    },
    {
      "anonymous": false,
      "inputs": [
        {
          "indexed": true,
          "internalType": "address",
          "name": "owner",
          "type": "address"
        },
        {
          "indexed": true,
          "internalType": "address",
          "name": "spender",
          "type": "address"
        },
        {
          "indexed": false,
          "internalType": "uint256",
          "name": "value",
          "type": "uint256"
        }
      ],
      "name": "Approval",
      "type": "event"
    },
    {
      "anonymous": false,
      "inputs": [
        {
          "indexed": false,
          "internalType": "address",
          "name": "account",
          "type": "address"
        }
      ],
      "name": "Paused",
      "type": "event"
    },
    {
      "anonymous": false,
      "inputs": [
        {
          "indexed": true,
          "internalType": "bytes32",
          "name": "role",
          "type": "bytes32"
        },
        {
          "indexed": true,
          "internalType": "bytes32",
          "name": "previousAdminRole",
          "type": "bytes32"
        },
        {
          "indexed": true,
          "internalType": "bytes32",
          "name": "newAdminRole",
          "type": "bytes32"
        }
      ],
      "name": "RoleAdminChanged",
      "type": "event"
    },
    {
      "anonymous": false,
      "inputs": [
        {
          "indexed": true,
          "internalType": "bytes32",
          "name": "role",
          "type": "bytes32"
        },
        {
          "indexed": true,
          "internalType": "address",
          "name": "account",
          "type": "address"
        },
        {
          "indexed": true,
          "internalType": "address",
          "name": "sender",
          "type": "address"
        }
      ],
      "name": "RoleGranted",
      "type": "event"
    },
    {
      "anonymous": false,
      "inputs": [
        {
          "indexed": true,
          "internalType": "bytes32",
          "name": "role",
          "type": "bytes32"
        },
        {
          "indexed": true,
          "internalType": "address",
          "name": "account",
          "type": "address"
        },
        {
          "indexed": true,
          "internalType": "address",
          "name": "sender",
          "type": "address"
        }
      ],
      "name": "RoleRevoked",
      "type": "event"
    },
    {
      "anonymous": false,
      "inputs": [
        {
          "indexed": true,
          "internalType": "address",
          "name": "from",
          "type": "address"
        },
        {
          "indexed": true,
          "internalType": "address",
          "name": "to",
          "type": "address"
        },
        {
          "indexed": false,
          "internalType": "uint256",
          "name": "value",
          "type": "uint256"
        }
      ],
      "name": "Transfer",
      "type": "event"
    },
    {
      "anonymous": false,
      "inputs": [
        {
          "indexed": false,
          "internalType": "address",
          "name": "account",
          "type": "address"
        }
      ],
      "name": "Unpaused",
      "type": "event"
    },
    {
      "inputs": [],
      "name": "ADMIN_ROLE",
      "outputs": [
        {
          "internalType": "bytes32",
          "name": "",
          "type": "bytes32"
        }
      ],
      "stateMutability": "view",
      "type": "function",
      "constant": true
    },
    {
      "inputs": [],
      "name": "DEFAULT_ADMIN_ROLE",
      "outputs": [
        {
          "internalType": "bytes32",
          "name": "",
          "type": "bytes32"
        }
      ],
      "stateMutability": "view",
      "type": "function",
      "constant": true
    },
    {
      "inputs": [],
      "name": "DELEGATE_ROLE",
      "outputs": [
        {
          "internalType": "bytes32",
          "name": "",
          "type": "bytes32"
        }
      ],
      "stateMutability": "view",
      "type": "function",
      "constant": true
    },
    {
      "inputs": [],
      "name": "OWNER_ROLE",
      "outputs": [
        {
          "internalType": "bytes32",
          "name": "",
          "type": "bytes32"
        }
      ],
      "stateMutability": "view",
      "type": "function",
      "constant": true
    },
    {
      "inputs": [
        {
          "internalType": "address",
          "name": "owner",
          "type": "address"
        },
        {
          "internalType": "address",
          "name": "spender",
          "type": "address"
        }
      ],
      "name": "allowance",
      "outputs": [
        {
          "internalType": "uint256",
          "name": "",
          "type": "uint256"
        }
      ],
      "stateMutability": "view",
      "type": "function",
      "constant": true
    },
    {
      "inputs": [
        {
          "internalType": "address",
          "name": "spender",
          "type": "address"
        },
        {
          "internalType": "uint256",
          "name": "amount",
          "type": "uint256"
        }
      ],
      "name": "approve",
      "outputs": [
        {
          "internalType": "bool",
          "name": "",
          "type": "bool"
        }
      ],
      "stateMutability": "nonpayable",
      "type": "function"
    },
    {
      "inputs": [
        {
          "internalType": "address",
          "name": "account",
          "type": "address"
        }
      ],
      "name": "balanceOf",
      "outputs": [
        {
          "internalType": "uint256",
          "name": "",
          "type": "uint256"
        }
      ],
      "stateMutability": "view",
      "type": "function",
      "constant": true
    },
    {
      "inputs": [],
      "name": "decimals",
      "outputs": [
        {
          "internalType": "uint8",
          "name": "",
          "type": "uint8"
        }
      ],
      "stateMutability": "view",
      "type": "function",
      "constant": true
    },
    {
      "inputs": [
        {
          "internalType": "address",
          "name": "spender",
          "type": "address"
        },
        {
          "internalType": "uint256",
          "name": "subtractedValue",
          "type": "uint256"
        }
      ],
      "name": "decreaseAllowance",
      "outputs": [
        {
          "internalType": "bool",
          "name": "",
          "type": "bool"
        }
      ],
      "stateMutability": "nonpayable",
      "type": "function"
    },
    {
      "inputs": [
        {
          "internalType": "bytes32",
          "name": "role",
          "type": "bytes32"
        }
      ],
      "name": "getRoleAdmin",
      "outputs": [
        {
          "internalType": "bytes32",
          "name": "",
          "type": "bytes32"
        }
      ],
      "stateMutability": "view",
      "type": "function",
      "constant": true
    },
    {
      "inputs": [
        {
          "internalType": "bytes32",
          "name": "role",
          "type": "bytes32"
        },
        {
          "internalType": "uint256",
          "name": "index",
          "type": "uint256"
        }
      ],
      "name": "getRoleMember",
      "outputs": [
        {
          "internalType": "address",
          "name": "",
          "type": "address"
        }
      ],
      "stateMutability": "view",
      "type": "function",
      "constant": true
    },
    {
      "inputs": [
        {
          "internalType": "bytes32",
          "name": "role",
          "type": "bytes32"
        }
      ],
      "name": "getRoleMemberCount",
      "outputs": [
        {
          "internalType": "uint256",
          "name": "",
          "type": "uint256"
        }
      ],
      "stateMutability": "view",
      "type": "function",
      "constant": true
    },
    {
      "inputs": [
        {
          "internalType": "bytes32",
          "name": "role",
          "type": "bytes32"
        },
        {
          "internalType": "address",
          "name": "account",
          "type": "address"
        }
      ],
      "name": "grantRole",
      "outputs": [],
      "stateMutability": "nonpayable",
      "type": "function"
    },
    {
      "inputs": [
        {
          "internalType": "bytes32",
          "name": "role",
          "type": "bytes32"
        },
        {
          "internalType": "address",
          "name": "account",
          "type": "address"
        }
      ],
      "name": "hasRole",
      "outputs": [
        {
          "internalType": "bool",
          "name": "",
          "type": "bool"
        }
      ],
      "stateMutability": "view",
      "type": "function",
      "constant": true
    },
    {
      "inputs": [
        {
          "internalType": "address",
          "name": "spender",
          "type": "address"
        },
        {
          "internalType": "uint256",
          "name": "addedValue",
          "type": "uint256"
        }
      ],
      "name": "increaseAllowance",
      "outputs": [
        {
          "internalType": "bool",
          "name": "",
          "type": "bool"
        }
      ],
      "stateMutability": "nonpayable",
      "type": "function"
    },
    {
      "inputs": [],
      "name": "name",
      "outputs": [
        {
          "internalType": "string",
          "name": "",
          "type": "string"
        }
      ],
      "stateMutability": "view",
      "type": "function",
      "constant": true
    },
    {
      "inputs": [],
      "name": "paused",
      "outputs": [
        {
          "internalType": "bool",
          "name": "",
          "type": "bool"
        }
      ],
      "stateMutability": "view",
      "type": "function",
      "constant": true
    },
    {
      "inputs": [
        {
          "internalType": "bytes32",
          "name": "role",
          "type": "bytes32"
        },
        {
          "internalType": "address",
          "name": "account",
          "type": "address"
        }
      ],
      "name": "renounceRole",
      "outputs": [],
      "stateMutability": "nonpayable",
      "type": "function"
    },
    {
      "inputs": [
        {
          "internalType": "bytes32",
          "name": "role",
          "type": "bytes32"
        },
        {
          "internalType": "address",
          "name": "account",
          "type": "address"
        }
      ],
      "name": "revokeRole",
      "outputs": [],
      "stateMutability": "nonpayable",
      "type": "function"
    },
    {
      "inputs": [
        {
          "internalType": "bytes4",
          "name": "interfaceId",
          "type": "bytes4"
        }
      ],
      "name": "supportsInterface",
      "outputs": [
        {
          "internalType": "bool",
          "name": "",
          "type": "bool"
        }
      ],
      "stateMutability": "view",
      "type": "function",
      "constant": true
    },
    {
      "inputs": [],
      "name": "symbol",
      "outputs": [
        {
          "internalType": "string",
          "name": "",
          "type": "string"
        }
      ],
      "stateMutability": "view",
      "type": "function",
      "constant": true
    },
    {
      "inputs": [],
      "name": "totalSupply",
      "outputs": [
        {
          "internalType": "uint256",
          "name": "",
          "type": "uint256"
        }
      ],
      "stateMutability": "view",
      "type": "function",
      "constant": true
    },
    {
      "inputs": [
        {
          "internalType": "address",
          "name": "recipient",
          "type": "address"
        },
        {
          "internalType": "uint256",
          "name": "amount",
          "type": "uint256"
        }
      ],
      "name": "transfer",
      "outputs": [
        {
          "internalType": "bool",
          "name": "",
          "type": "bool"
        }
      ],
      "stateMutability": "nonpayable",
      "type": "function"
    },
    {
      "inputs": [
        {
          "internalType": "address",
          "name": "sender",
          "type": "address"
        },
        {
          "internalType": "address",
          "name": "recipient",
          "type": "address"
        },
        {
          "internalType": "uint256",
          "name": "amount",
          "type": "uint256"
        }
      ],
      "name": "transferFrom",
      "outputs": [
        {
          "internalType": "bool",
          "name": "",
          "type": "bool"
        }
      ],
      "stateMutability": "nonpayable",
      "type": "function"
    },
    {
      "inputs": [
        {
          "internalType": "address",
          "name": "to",
          "type": "address"
        },
        {
          "internalType": "uint256",
          "name": "amount",
          "type": "uint256"
        }
      ],
      "name": "mint",
      "outputs": [],
      "stateMutability": "nonpayable",
      "type": "function"
    },
    {
      "inputs": [],
      "name": "pause",
      "outputs": [],
      "stateMutability": "nonpayable",
      "type": "function"
    },
    {
      "inputs": [],
      "name": "unpause",
      "outputs": [],
      "stateMutability": "nonpayable",
      "type": "function"
    },
    {
      "inputs": [
        {
          "internalType": "uint256",
          "name": "amount",
          "type": "uint256"
        }
      ],
      "name": "burn",
      "outputs": [],
      "stateMutability": "nonpayable",
      "type": "function"
    },
    {
      "inputs": [
        {
          "internalType": "address",
          "name": "account",
          "type": "address"
        },
        {
          "internalType": "uint256",
          "name": "amount",
          "type": "uint256"
        }
      ],
      "name": "burnFrom",
      "outputs": [],
      "stateMutability": "nonpayable",
      "type": "function"
    }
  ],
  "bytecode": "0x60806040523480156200001157600080fd5b5060405162003e9938038062003e998339818101604052810190620000379190620005d9565b8181816005908051906020019062000051929190620004b7565b5080600690805190602001906200006a929190620004b7565b5050506000600760006101000a81548160ff021916908315150217905550620000c97fb19546dff01e856fb3f010c267a7b1c60363cf8a4664e21cc89c26224620214e620000bd620001a560201b60201c565b620001ad60201b60201c565b6200010a7fa49807205ce4d355092ef5a8a18f56e8913cf4a201fbe287825b095693c21775620000fe620001a560201b60201c565b620001ad60201b60201c565b6200014b7f1a82baf2b928242f69f7147fb92490c6288d044f7257b88817e6284f1eec0f156200013f620001a560201b60201c565b620001ad60201b60201c565b6200019d7f1a82baf2b928242f69f7147fb92490c6288d044f7257b88817e6284f1eec0f157fa49807205ce4d355092ef5a8a18f56e8913cf4a201fbe287825b095693c21775620001f560201b60201c565b5050620007bc565b600033905090565b620001c482826200025260201b62000faa1760201c565b620001f081600160008581526020019081526020016000206200026860201b62000fb81790919060201c565b505050565b806200020783620002a060201b60201c565b837fbd79b86ffe0ab8e8776151514217cd7cacd52c909f66475c3af44e129f0b00ff60405160405180910390a480600080848152602001908152602001600020600101819055505050565b620002648282620002bf60201b60201c565b5050565b600062000298836000018373ffffffffffffffffffffffffffffffffffffffff1660001b620003b060201b60201c565b905092915050565b6000806000838152602001908152602001600020600101549050919050565b620002d182826200042a60201b60201c565b620003ac57600160008084815260200190815260200160002060000160008373ffffffffffffffffffffffffffffffffffffffff1673ffffffffffffffffffffffffffffffffffffffff16815260200190815260200160002060006101000a81548160ff02191690831515021790555062000351620001a560201b60201c565b73ffffffffffffffffffffffffffffffffffffffff168173ffffffffffffffffffffffffffffffffffffffff16837f2f8788117e7eff1d82e926ec794901d17c78024a50270940304540a733656f0d60405160405180910390a45b5050565b6000620003c483836200049460201b60201c565b6200041f57826000018290806001815401808255809150506001900390600052602060002001600090919091909150558260000180549050836001016000848152602001908152602001600020819055506001905062000424565b600090505b92915050565b600080600084815260200190815260200160002060000160008373ffffffffffffffffffffffffffffffffffffffff1673ffffffffffffffffffffffffffffffffffffffff16815260200190815260200160002060009054906101000a900460ff16905092915050565b600080836001016000848152602001908152602001600020541415905092915050565b828054620004c590620006e1565b90600052602060002090601f016020900481019282620004e9576000855562000535565b82601f106200050457805160ff191683800117855562000535565b8280016001018555821562000535579182015b828111156200053457825182559160200191906001019062000517565b5b50905062000544919062000548565b5090565b5b808211156200056357600081600090555060010162000549565b5090565b60006200057e620005788462000675565b6200064c565b9050828152602081018484840111156200059757600080fd5b620005a4848285620006ab565b509392505050565b600082601f830112620005be57600080fd5b8151620005d084826020860162000567565b91505092915050565b60008060408385031215620005ed57600080fd5b600083015167ffffffffffffffff8111156200060857600080fd5b6200061685828601620005ac565b925050602083015167ffffffffffffffff8111156200063457600080fd5b6200064285828601620005ac565b9150509250929050565b6000620006586200066b565b905062000666828262000717565b919050565b6000604051905090565b600067ffffffffffffffff8211156200069357620006926200077c565b5b6200069e82620007ab565b9050602081019050919050565b60005b83811015620006cb578082015181840152602081019050620006ae565b83811115620006db576000848401525b50505050565b60006002820490506001821680620006fa57607f821691505b602082108114156200071157620007106200074d565b5b50919050565b6200072282620007ab565b810181811067ffffffffffffffff821117156200074457620007436200077c565b5b80604052505050565b7f4e487b7100000000000000000000000000000000000000000000000000000000600052602260045260246000fd5b7f4e487b7100000000000000000000000000000000000000000000000000000000600052604160045260246000fd5b6000601f19601f8301169050919050565b6136cd80620007cc6000396000f3fe608060405234801561001057600080fd5b50600436106101cf5760003560e01c806370a0823111610104578063a217fddf116100a2578063ca15c87311610071578063ca15c87314610544578063d547741f14610574578063dd62ed3e14610590578063e58378bb146105c0576101cf565b8063a217fddf146104a8578063a457c2d7146104c6578063a9059cbb146104f6578063c0ba241b14610526576101cf565b80638456cb59116100de5780638456cb59146104205780639010d07c1461042a57806391d148541461045a57806395d89b411461048a576101cf565b806370a08231146103b657806375b238fc146103e657806379cc679014610404576101cf565b8063313ce567116101715780633f4ba83a1161014b5780633f4ba83a1461035657806340c10f191461036057806342966c681461037c5780635c975abb14610398576101cf565b8063313ce567146102ec57806336568abe1461030a5780633950935114610326576101cf565b806318160ddd116101ad57806318160ddd1461025257806323b872dd14610270578063248a9ca3146102a05780632f2ff15d146102d0576101cf565b806301ffc9a7146101d457806306fdde0314610204578063095ea7b314610222575b600080fd5b6101ee60048036038101906101e991906125c3565b6105de565b6040516101fb9190612a44565b60405180910390f35b61020c610658565b6040516102199190612a7a565b60405180910390f35b61023c600480360381019061023791906124e6565b6106ea565b6040516102499190612a44565b60405180910390f35b61025a610708565b6040516102679190612d3c565b60405180910390f35b61028a60048036038101906102859190612497565b610712565b6040516102979190612a44565b60405180910390f35b6102ba60048036038101906102b59190612522565b610813565b6040516102c79190612a5f565b60405180910390f35b6102ea60048036038101906102e5919061254b565b610832565b005b6102f4610866565b6040516103019190612d57565b60405180910390f35b610324600480360381019061031f919061254b565b61086f565b005b610340600480360381019061033b91906124e6565b6108a3565b60405161034d9190612a44565b60405180910390f35b61035e61094f565b005b61037a600480360381019061037591906124e6565b6109c9565b005b610396600480360381019061039191906125ec565b610a47565b005b6103a0610ac3565b6040516103ad9190612a44565b60405180910390f35b6103d060048036038101906103cb9190612432565b610ada565b6040516103dd9190612d3c565b60405180910390f35b6103ee610b23565b6040516103fb9190612a5f565b60405180910390f35b61041e600480360381019061041991906124e6565b610b47565b005b610428610bc5565b005b610444600480360381019061043f9190612587565b610c3f565b6040516104519190612a29565b60405180910390f35b610474600480360381019061046f919061254b565b610c6e565b6040516104819190612a44565b60405180910390f35b610492610cd8565b60405161049f9190612a7a565b60405180910390f35b6104b0610d6a565b6040516104bd9190612a5f565b60405180910390f35b6104e060048036038101906104db91906124e6565b610d71565b6040516104ed9190612a44565b60405180910390f35b610510600480360381019061050b91906124e6565b610e65565b60405161051d9190612a44565b60405180910390f35b61052e610e83565b60405161053b9190612a5f565b60405180910390f35b61055e60048036038101906105599190612522565b610ea7565b60405161056b9190612d3c565b60405180910390f35b61058e6004803603810190610589919061254b565b610ecb565b005b6105aa60048036038101906105a5919061245b565b610eff565b6040516105b79190612d3c565b60405180910390f35b6105c8610f86565b6040516105d59190612a5f565b60405180910390f35b60007f5a05180f000000000000000000000000000000000000000000000000000000007bffffffffffffffffffffffffffffffffffffffffffffffffffffffff1916827bffffffffffffffffffffffffffffffffffffffffffffffffffffffff19161480610651575061065082610fe8565b5b9050919050565b60606005805461066790612f65565b80601f016020809104026020016040519081016040528092919081815260200182805461069390612f65565b80156106e05780601f106106b5576101008083540402835291602001916106e0565b820191906000526020600020905b8154815290600101906020018083116106c357829003601f168201915b5050505050905090565b60006106fe6106f7611062565b848461106a565b6001905092915050565b6000600454905090565b600061071f848484611235565b6000600360008673ffffffffffffffffffffffffffffffffffffffff1673ffffffffffffffffffffffffffffffffffffffff168152602001908152602001600020600061076a611062565b73ffffffffffffffffffffffffffffffffffffffff1673ffffffffffffffffffffffffffffffffffffffff168152602001908152602001600020549050828110156107ea576040517f08c379a00000000000000000000000000000000000000000000000000000000081526004016107e190612bfc565b60405180910390fd5b610807856107f6611062565b85846108029190612e49565b61106a565b60019150509392505050565b6000806000838152602001908152602001600020600101549050919050565b61083c82826114b7565b6108618160016000858152602001908152602001600020610fb890919063ffffffff16565b505050565b60006012905090565b61087982826114e0565b61089e816001600085815260200190815260200160002061156390919063ffffffff16565b505050565b60006109456108b0611062565b8484600360006108be611062565b73ffffffffffffffffffffffffffffffffffffffff1673ffffffffffffffffffffffffffffffffffffffff16815260200190815260200160002060008873ffffffffffffffffffffffffffffffffffffffff1673ffffffffffffffffffffffffffffffffffffffff168152602001908152602001600020546109409190612d99565b61106a565b6001905092915050565b6109807fa49807205ce4d355092ef5a8a18f56e8913cf4a201fbe287825b095693c2177561097b611062565b610c6e565b6109bf576040517f08c379a00000000000000000000000000000000000000000000000000000000081526004016109b690612b5c565b60405180910390fd5b6109c7611593565b565b6109fa7f1a82baf2b928242f69f7147fb92490c6288d044f7257b88817e6284f1eec0f156109f5611062565b610c6e565b610a39576040517f08c379a0000000000000000000000000000000000000000000000000000000008152600401610a3090612b9c565b60405180910390fd5b610a438282611635565b5050565b610a787fb19546dff01e856fb3f010c267a7b1c60363cf8a4664e21cc89c26224620214e610a73611062565b610c6e565b610ab7576040517f08c379a0000000000000000000000000000000000000000000000000000000008152600401610aae90612c9c565b60405180910390fd5b610ac08161178a565b50565b6000600760009054906101000a900460ff16905090565b6000600260008373ffffffffffffffffffffffffffffffffffffffff1673ffffffffffffffffffffffffffffffffffffffff168152602001908152602001600020549050919050565b7fa49807205ce4d355092ef5a8a18f56e8913cf4a201fbe287825b095693c2177581565b610b787fb19546dff01e856fb3f010c267a7b1c60363cf8a4664e21cc89c26224620214e610b73611062565b610c6e565b610bb7576040517f08c379a0000000000000000000000000000000000000000000000000000000008152600401610bae90612c9c565b60405180910390fd5b610bc1828261179e565b5050565b610bf67fa49807205ce4d355092ef5a8a18f56e8913cf4a201fbe287825b095693c21775610bf1611062565b610c6e565b610c35576040517f08c379a0000000000000000000000000000000000000000000000000000000008152600401610c2c90612bdc565b60405180910390fd5b610c3d611822565b565b6000610c6682600160008681526020019081526020016000206118c590919063ffffffff16565b905092915050565b600080600084815260200190815260200160002060000160008373ffffffffffffffffffffffffffffffffffffffff1673ffffffffffffffffffffffffffffffffffffffff16815260200190815260200160002060009054906101000a900460ff16905092915050565b606060068054610ce790612f65565b80601f0160208091040260200160405190810160405280929190818152602001828054610d1390612f65565b8015610d605780601f10610d3557610100808354040283529160200191610d60565b820191906000526020600020905b815481529060010190602001808311610d4357829003601f168201915b5050505050905090565b6000801b81565b60008060036000610d80611062565b73ffffffffffffffffffffffffffffffffffffffff1673ffffffffffffffffffffffffffffffffffffffff16815260200190815260200160002060008573ffffffffffffffffffffffffffffffffffffffff1673ffffffffffffffffffffffffffffffffffffffff16815260200190815260200160002054905082811015610e3d576040517f08c379a0000000000000000000000000000000000000000000000000000000008152600401610e3490612cbc565b60405180910390fd5b610e5a610e48611062565b858584610e559190612e49565b61106a565b600191505092915050565b6000610e79610e72611062565b8484611235565b6001905092915050565b7f1a82baf2b928242f69f7147fb92490c6288d044f7257b88817e6284f1eec0f1581565b6000610ec4600160008481526020019081526020016000206118df565b9050919050565b610ed582826118f4565b610efa816001600085815260200190815260200160002061156390919063ffffffff16565b505050565b6000600360008473ffffffffffffffffffffffffffffffffffffffff1673ffffffffffffffffffffffffffffffffffffffff16815260200190815260200160002060008373ffffffffffffffffffffffffffffffffffffffff1673ffffffffffffffffffffffffffffffffffffffff16815260200190815260200160002054905092915050565b7fb19546dff01e856fb3f010c267a7b1c60363cf8a4664e21cc89c26224620214e81565b610fb4828261191d565b5050565b6000610fe0836000018373ffffffffffffffffffffffffffffffffffffffff1660001b6119fd565b905092915050565b60007f7965db0b000000000000000000000000000000000000000000000000000000007bffffffffffffffffffffffffffffffffffffffffffffffffffffffff1916827bffffffffffffffffffffffffffffffffffffffffffffffffffffffff1916148061105b575061105a82611a6d565b5b9050919050565b600033905090565b600073ffffffffffffffffffffffffffffffffffffffff168373ffffffffffffffffffffffffffffffffffffffff1614156110da576040517f08c379a00000000000000000000000000000000000000000000000000000000081526004016110d190612c7c565b60405180910390fd5b600073ffffffffffffffffffffffffffffffffffffffff168273ffffffffffffffffffffffffffffffffffffffff16141561114a576040517f08c379a000000000000000000000000000000000000000000000000000000000815260040161114190612b3c565b60405180910390fd5b80600360008573ffffffffffffffffffffffffffffffffffffffff1673ffffffffffffffffffffffffffffffffffffffff16815260200190815260200160002060008473ffffffffffffffffffffffffffffffffffffffff1673ffffffffffffffffffffffffffffffffffffffff168152602001908152602001600020819055508173ffffffffffffffffffffffffffffffffffffffff168373ffffffffffffffffffffffffffffffffffffffff167f8c5be1e5ebec7d5bd14f71427d1e84f3dd0314c0f7b2291e5b200ac8c7c3b925836040516112289190612d3c565b60405180910390a3505050565b600073ffffffffffffffffffffffffffffffffffffffff168373ffffffffffffffffffffffffffffffffffffffff1614156112a5576040517f08c379a000000000000000000000000000000000000000000000000000000000815260040161129c90612c5c565b60405180910390fd5b600073ffffffffffffffffffffffffffffffffffffffff168273ffffffffffffffffffffffffffffffffffffffff161415611315576040517f08c379a000000000000000000000000000000000000000000000000000000000815260040161130c90612adc565b60405180910390fd5b611320838383611ad7565b6000600260008573ffffffffffffffffffffffffffffffffffffffff1673ffffffffffffffffffffffffffffffffffffffff168152602001908152602001600020549050818110156113a7576040517f08c379a000000000000000000000000000000000000000000000000000000000815260040161139e90612b7c565b60405180910390fd5b81816113b39190612e49565b600260008673ffffffffffffffffffffffffffffffffffffffff1673ffffffffffffffffffffffffffffffffffffffff1681526020019081526020016000208190555081600260008573ffffffffffffffffffffffffffffffffffffffff1673ffffffffffffffffffffffffffffffffffffffff16815260200190815260200160002060008282546114459190612d99565b925050819055508273ffffffffffffffffffffffffffffffffffffffff168473ffffffffffffffffffffffffffffffffffffffff167fddf252ad1be2c89b69c2b068fc378daa952ba7f163c4a11628f55a4df523b3ef846040516114a99190612d3c565b60405180910390a350505050565b6114c082610813565b6114d1816114cc611062565b611ae7565b6114db838361191d565b505050565b6114e8611062565b73ffffffffffffffffffffffffffffffffffffffff168173ffffffffffffffffffffffffffffffffffffffff1614611555576040517f08c379a000000000000000000000000000000000000000000000000000000000815260040161154c90612cdc565b60405180910390fd5b61155f8282611b84565b5050565b600061158b836000018373ffffffffffffffffffffffffffffffffffffffff1660001b611c65565b905092915050565b61159b610ac3565b6115da576040517f08c379a00000000000000000000000000000000000000000000000000000000081526004016115d190612afc565b60405180910390fd5b6000600760006101000a81548160ff0219169083151502179055507f5db9ee0a495bf2e6ff9c91a7834c1ba4fdd244a5e8aa4e537bd38aeae4b073aa61161e611062565b60405161162b9190612a29565b60405180910390a1565b600073ffffffffffffffffffffffffffffffffffffffff168273ffffffffffffffffffffffffffffffffffffffff1614156116a5576040517f08c379a000000000000000000000000000000000000000000000000000000000815260040161169c90612cfc565b60405180910390fd5b6116b160008383611ad7565b80600460008282546116c39190612d99565b9250508190555080600260008473ffffffffffffffffffffffffffffffffffffffff1673ffffffffffffffffffffffffffffffffffffffff16815260200190815260200160002060008282546117199190612d99565b925050819055508173ffffffffffffffffffffffffffffffffffffffff16600073ffffffffffffffffffffffffffffffffffffffff167fddf252ad1be2c89b69c2b068fc378daa952ba7f163c4a11628f55a4df523b3ef8360405161177e9190612d3c565b60405180910390a35050565b61179b611795611062565b82611de3565b50565b60006117b1836117ac611062565b610eff565b9050818110156117f6576040517f08c379a00000000000000000000000000000000000000000000000000000000081526004016117ed90612c1c565b60405180910390fd5b61181383611802611062565b848461180e9190612e49565b61106a565b61181d8383611de3565b505050565b61182a610ac3565b1561186a576040517f08c379a000000000000000000000000000000000000000000000000000000000815260040161186190612bbc565b60405180910390fd5b6001600760006101000a81548160ff0219169083151502179055507f62e78cea01bee320cd4e420270b5ea74000d11b0c9f74754ebdbfc544b05a2586118ae611062565b6040516118bb9190612a29565b60405180910390a1565b60006118d48360000183611fb9565b60001c905092915050565b60006118ed82600001612053565b9050919050565b6118fd82610813565b61190e81611909611062565b611ae7565b6119188383611b84565b505050565b6119278282610c6e565b6119f957600160008084815260200190815260200160002060000160008373ffffffffffffffffffffffffffffffffffffffff1673ffffffffffffffffffffffffffffffffffffffff16815260200190815260200160002060006101000a81548160ff02191690831515021790555061199e611062565b73ffffffffffffffffffffffffffffffffffffffff168173ffffffffffffffffffffffffffffffffffffffff16837f2f8788117e7eff1d82e926ec794901d17c78024a50270940304540a733656f0d60405160405180910390a45b5050565b6000611a098383612064565b611a62578260000182908060018154018082558091505060019003906000526020600020016000909190919091505582600001805490508360010160008481526020019081526020016000208190555060019050611a67565b600090505b92915050565b60007f01ffc9a7000000000000000000000000000000000000000000000000000000007bffffffffffffffffffffffffffffffffffffffffffffffffffffffff1916827bffffffffffffffffffffffffffffffffffffffffffffffffffffffff1916149050919050565b611ae2838383612087565b505050565b611af18282610c6e565b611b8057611b168173ffffffffffffffffffffffffffffffffffffffff1660146120df565b611b248360001c60206120df565b604051602001611b359291906129ef565b6040516020818303038152906040526040517f08c379a0000000000000000000000000000000000000000000000000000000008152600401611b779190612a7a565b60405180910390fd5b5050565b611b8e8282610c6e565b15611c6157600080600084815260200190815260200160002060000160008373ffffffffffffffffffffffffffffffffffffffff1673ffffffffffffffffffffffffffffffffffffffff16815260200190815260200160002060006101000a81548160ff021916908315150217905550611c06611062565b73ffffffffffffffffffffffffffffffffffffffff168173ffffffffffffffffffffffffffffffffffffffff16837ff6391f5c32d9c69d2a47ea670b442974b53935d1edc7fd64eb21e047a839171b60405160405180910390a45b5050565b60008083600101600084815260200190815260200160002054905060008114611dd7576000600182611c979190612e49565b9050600060018660000180549050611caf9190612e49565b90506000866000018281548110611cef577f4e487b7100000000000000000000000000000000000000000000000000000000600052603260045260246000fd5b9060005260206000200154905080876000018481548110611d39577f4e487b7100000000000000000000000000000000000000000000000000000000600052603260045260246000fd5b9060005260206000200181905550838760010160008381526020019081526020016000208190555086600001805480611d9b577f4e487b7100000000000000000000000000000000000000000000000000000000600052603160045260246000fd5b60019003818190600052602060002001600090559055866001016000878152602001908152602001600020600090556001945050505050611ddd565b60009150505b92915050565b600073ffffffffffffffffffffffffffffffffffffffff168273ffffffffffffffffffffffffffffffffffffffff161415611e53576040517f08c379a0000000000000000000000000000000000000000000000000000000008152600401611e4a90612c3c565b60405180910390fd5b611e5f82600083611ad7565b6000600260008473ffffffffffffffffffffffffffffffffffffffff1673ffffffffffffffffffffffffffffffffffffffff16815260200190815260200160002054905081811015611ee6576040517f08c379a0000000000000000000000000000000000000000000000000000000008152600401611edd90612b1c565b60405180910390fd5b8181611ef29190612e49565b600260008573ffffffffffffffffffffffffffffffffffffffff1673ffffffffffffffffffffffffffffffffffffffff168152602001908152602001600020819055508160046000828254611f479190612e49565b92505081905550600073ffffffffffffffffffffffffffffffffffffffff168373ffffffffffffffffffffffffffffffffffffffff167fddf252ad1be2c89b69c2b068fc378daa952ba7f163c4a11628f55a4df523b3ef84604051611fac9190612d3c565b60405180910390a3505050565b600081836000018054905011612004576040517f08c379a0000000000000000000000000000000000000000000000000000000008152600401611ffb90612a9c565b60405180910390fd5b826000018281548110612040577f4e487b7100000000000000000000000000000000000000000000000000000000600052603260045260246000fd5b9060005260206000200154905092915050565b600081600001805490509050919050565b600080836001016000848152602001908152602001600020541415905092915050565b6120928383836123d9565b61209a610ac3565b156120da576040517f08c379a00000000000000000000000000000000000000000000000000000000081526004016120d190612d1c565b60405180910390fd5b505050565b6060600060028360026120f29190612def565b6120fc9190612d99565b67ffffffffffffffff81111561213b577f4e487b7100000000000000000000000000000000000000000000000000000000600052604160045260246000fd5b6040519080825280601f01601f19166020018201604052801561216d5781602001600182028036833780820191505090505b5090507f3000000000000000000000000000000000000000000000000000000000000000816000815181106121cb577f4e487b7100000000000000000000000000000000000000000000000000000000600052603260045260246000fd5b60200101907effffffffffffffffffffffffffffffffffffffffffffffffffffffffffffff1916908160001a9053507f780000000000000000000000000000000000000000000000000000000000000081600181518110612255577f4e487b7100000000000000000000000000000000000000000000000000000000600052603260045260246000fd5b60200101907effffffffffffffffffffffffffffffffffffffffffffffffffffffffffffff1916908160001a905350600060018460026122959190612def565b61229f9190612d99565b90505b600181111561238b577f3031323334353637383961626364656600000000000000000000000000000000600f861660108110612307577f4e487b7100000000000000000000000000000000000000000000000000000000600052603260045260246000fd5b1a60f81b828281518110612344577f4e487b7100000000000000000000000000000000000000000000000000000000600052603260045260246000fd5b60200101907effffffffffffffffffffffffffffffffffffffffffffffffffffffffffffff1916908160001a905350600485901c94508061238490612f3b565b90506122a2565b50600084146123cf576040517f08c379a00000000000000000000000000000000000000000000000000000000081526004016123c690612abc565b60405180910390fd5b8091505092915050565b505050565b6000813590506123ed8161363b565b92915050565b60008135905061240281613652565b92915050565b60008135905061241781613669565b92915050565b60008135905061242c81613680565b92915050565b60006020828403121561244457600080fd5b6000612452848285016123de565b91505092915050565b6000806040838503121561246e57600080fd5b600061247c858286016123de565b925050602061248d858286016123de565b9150509250929050565b6000806000606084860312156124ac57600080fd5b60006124ba868287016123de565b93505060206124cb868287016123de565b92505060406124dc8682870161241d565b9150509250925092565b600080604083850312156124f957600080fd5b6000612507858286016123de565b92505060206125188582860161241d565b9150509250929050565b60006020828403121561253457600080fd5b6000612542848285016123f3565b91505092915050565b6000806040838503121561255e57600080fd5b600061256c858286016123f3565b925050602061257d858286016123de565b9150509250929050565b6000806040838503121561259a57600080fd5b60006125a8858286016123f3565b92505060206125b98582860161241d565b9150509250929050565b6000602082840312156125d557600080fd5b60006125e384828501612408565b91505092915050565b6000602082840312156125fe57600080fd5b600061260c8482850161241d565b91505092915050565b61261e81612e7d565b82525050565b61262d81612e8f565b82525050565b61263c81612e9b565b82525050565b600061264d82612d72565b6126578185612d7d565b9350612667818560208601612f08565b61267081612ff5565b840191505092915050565b600061268682612d72565b6126908185612d8e565b93506126a0818560208601612f08565b80840191505092915050565b60006126b9602283612d7d565b91506126c482613006565b604082019050919050565b60006126dc602083612d7d565b91506126e782613055565b602082019050919050565b60006126ff602383612d7d565b915061270a8261307e565b604082019050919050565b6000612722601483612d7d565b915061272d826130cd565b602082019050919050565b6000612745602283612d7d565b9150612750826130f6565b604082019050919050565b6000612768602283612d7d565b915061277382613145565b604082019050919050565b600061278b602d83612d7d565b915061279682613194565b604082019050919050565b60006127ae602683612d7d565b91506127b9826131e3565b604082019050919050565b60006127d1602a83612d7d565b91506127dc82613232565b604082019050919050565b60006127f4601083612d7d565b91506127ff82613281565b602082019050919050565b6000612817602b83612d7d565b9150612822826132aa565b604082019050919050565b600061283a602883612d7d565b9150612845826132f9565b604082019050919050565b600061285d602483612d7d565b915061286882613348565b604082019050919050565b6000612880602183612d7d565b915061288b82613397565b604082019050919050565b60006128a3602583612d7d565b91506128ae826133e6565b604082019050919050565b60006128c6602483612d7d565b91506128d182613435565b604082019050919050565b60006128e9602c83612d7d565b91506128f482613484565b604082019050919050565b600061290c601783612d8e565b9150612917826134d3565b601782019050919050565b600061292f602583612d7d565b915061293a826134fc565b604082019050919050565b6000612952601183612d8e565b915061295d8261354b565b601182019050919050565b6000612975602f83612d7d565b915061298082613574565b604082019050919050565b6000612998601f83612d7d565b91506129a3826135c3565b602082019050919050565b60006129bb602a83612d7d565b91506129c6826135ec565b604082019050919050565b6129da81612ef1565b82525050565b6129e981612efb565b82525050565b60006129fa826128ff565b9150612a06828561267b565b9150612a1182612945565b9150612a1d828461267b565b91508190509392505050565b6000602082019050612a3e6000830184612615565b92915050565b6000602082019050612a596000830184612624565b92915050565b6000602082019050612a746000830184612633565b92915050565b60006020820190508181036000830152612a948184612642565b905092915050565b60006020820190508181036000830152612ab5816126ac565b9050919050565b60006020820190508181036000830152612ad5816126cf565b9050919050565b60006020820190508181036000830152612af5816126f2565b9050919050565b60006020820190508181036000830152612b1581612715565b9050919050565b60006020820190508181036000830152612b3581612738565b9050919050565b60006020820190508181036000830152612b558161275b565b9050919050565b60006020820190508181036000830152612b758161277e565b9050919050565b60006020820190508181036000830152612b95816127a1565b9050919050565b60006020820190508181036000830152612bb5816127c4565b9050919050565b60006020820190508181036000830152612bd5816127e7565b9050919050565b60006020820190508181036000830152612bf58161280a565b9050919050565b60006020820190508181036000830152612c158161282d565b9050919050565b60006020820190508181036000830152612c3581612850565b9050919050565b60006020820190508181036000830152612c5581612873565b9050919050565b60006020820190508181036000830152612c7581612896565b9050919050565b60006020820190508181036000830152612c95816128b9565b9050919050565b60006020820190508181036000830152612cb5816128dc565b9050919050565b60006020820190508181036000830152612cd581612922565b9050919050565b60006020820190508181036000830152612cf581612968565b9050919050565b60006020820190508181036000830152612d158161298b565b9050919050565b60006020820190508181036000830152612d35816129ae565b9050919050565b6000602082019050612d5160008301846129d1565b92915050565b6000602082019050612d6c60008301846129e0565b92915050565b600081519050919050565b600082825260208201905092915050565b600081905092915050565b6000612da482612ef1565b9150612daf83612ef1565b9250827fffffffffffffffffffffffffffffffffffffffffffffffffffffffffffffffff03821115612de457612de3612f97565b5b828201905092915050565b6000612dfa82612ef1565b9150612e0583612ef1565b9250817fffffffffffffffffffffffffffffffffffffffffffffffffffffffffffffffff0483118215151615612e3e57612e3d612f97565b5b828202905092915050565b6000612e5482612ef1565b9150612e5f83612ef1565b925082821015612e7257612e71612f97565b5b828203905092915050565b6000612e8882612ed1565b9050919050565b60008115159050919050565b6000819050919050565b60007fffffffff0000000000000000000000000000000000000000000000000000000082169050919050565b600073ffffffffffffffffffffffffffffffffffffffff82169050919050565b6000819050919050565b600060ff82169050919050565b60005b83811015612f26578082015181840152602081019050612f0b565b83811115612f35576000848401525b50505050565b6000612f4682612ef1565b91506000821415612f5a57612f59612f97565b5b600182039050919050565b60006002820490506001821680612f7d57607f821691505b60208210811415612f9157612f90612fc6565b5b50919050565b7f4e487b7100000000000000000000000000000000000000000000000000000000600052601160045260246000fd5b7f4e487b7100000000000000000000000000000000000000000000000000000000600052602260045260246000fd5b6000601f19601f8301169050919050565b7f456e756d657261626c655365743a20696e646578206f7574206f6620626f756e60008201527f6473000000000000000000000000000000000000000000000000000000000000602082015250565b7f537472696e67733a20686578206c656e67746820696e73756666696369656e74600082015250565b7f45524332303a207472616e7366657220746f20746865207a65726f206164647260008201527f6573730000000000000000000000000000000000000000000000000000000000602082015250565b7f5061757361626c653a206e6f7420706175736564000000000000000000000000600082015250565b7f45524332303a206275726e20616d6f756e7420657863656564732062616c616e60008201527f6365000000000000000000000000000000000000000000000000000000000000602082015250565b7f45524332303a20617070726f766520746f20746865207a65726f20616464726560008201527f7373000000000000000000000000000000000000000000000000000000000000602082015250565b7f5468726f6e6545524332303a206d75737420686176652070617573657220726f60008201527f6c6520746f20756e706175736500000000000000000000000000000000000000602082015250565b7f45524332303a207472616e7366657220616d6f756e742065786365656473206260008201527f616c616e63650000000000000000000000000000000000000000000000000000602082015250565b7f5468726f6e6545524332303a206d7573742068617665206d696e74657220726f60008201527f6c6520746f206d696e7400000000000000000000000000000000000000000000602082015250565b7f5061757361626c653a2070617573656400000000000000000000000000000000600082015250565b7f5468726f6e6545524332303a206d75737420686176652070617573657220726f60008201527f6c6520746f207061757365000000000000000000000000000000000000000000602082015250565b7f45524332303a207472616e7366657220616d6f756e742065786365656473206160008201527f6c6c6f77616e6365000000000000000000000000000000000000000000000000602082015250565b7f45524332303a206275726e20616d6f756e74206578636565647320616c6c6f7760008201527f616e636500000000000000000000000000000000000000000000000000000000602082015250565b7f45524332303a206275726e2066726f6d20746865207a65726f2061646472657360008201527f7300000000000000000000000000000000000000000000000000000000000000602082015250565b7f45524332303a207472616e736665722066726f6d20746865207a65726f20616460008201527f6472657373000000000000000000000000000000000000000000000000000000602082015250565b7f45524332303a20617070726f76652066726f6d20746865207a65726f2061646460008201527f7265737300000000000000000000000000000000000000000000000000000000602082015250565b7f5468726f6e6545524332303a206d7573742068617665206f776e657220726f6c60008201527f6520746f20756e70617573650000000000000000000000000000000000000000602082015250565b7f416363657373436f6e74726f6c3a206163636f756e7420000000000000000000600082015250565b7f45524332303a2064656372656173656420616c6c6f77616e63652062656c6f7760008201527f207a65726f000000000000000000000000000000000000000000000000000000602082015250565b7f206973206d697373696e6720726f6c6520000000000000000000000000000000600082015250565b7f416363657373436f6e74726f6c3a2063616e206f6e6c792072656e6f756e636560008201527f20726f6c657320666f722073656c660000000000000000000000000000000000602082015250565b7f45524332303a206d696e7420746f20746865207a65726f206164647265737300600082015250565b7f45524332305061757361626c653a20746f6b656e207472616e7366657220776860008201527f696c652070617573656400000000000000000000000000000000000000000000602082015250565b61364481612e7d565b811461364f57600080fd5b50565b61365b81612e9b565b811461366657600080fd5b50565b61367281612ea5565b811461367d57600080fd5b50565b61368981612ef1565b811461369457600080fd5b5056fea2646970667358221220036e62ebaa7b141bc696ebbb064ca858f481fdc1d0a81383021211240c4f9a4564736f6c63430008040033",
  "immutableReferences": {},
  "source": "// SPDX-License-Identifier: MIT\npragma solidity >=0.8.0 <0.9.0;\n\nimport \"@openzeppelin/contracts/token/ERC20/ERC20.sol\";\nimport \"@openzeppelin/contracts/token/ERC20/extensions/ERC20Burnable.sol\";\nimport \"@openzeppelin/contracts/token/ERC20/extensions/ERC20Pausable.sol\";\nimport \"@openzeppelin/contracts/access/AccessControlEnumerable.sol\";\nimport \"@openzeppelin/contracts/utils/Context.sol\";\n\n\ncontract ThroneERC20 is Context, AccessControlEnumerable, ERC20Burnable, ERC20Pausable {\n    bytes32 public constant OWNER_ROLE = keccak256(\"OWNER_ROLE\");\n    bytes32 public constant ADMIN_ROLE = keccak256(\"ADMIN_ROLE\");\n    bytes32 public constant DELEGATE_ROLE = keccak256(\"DELEGATE_ROLE\");\n\n    /**\n     * @dev Grants `OWNER_ROLE`, `ADMIN_ROLE` and `DELEGATE_ROLE` to the\n     * account that deploys the contract.\n     *\n     * See {ERC20-constructor}.\n     */\n    constructor(string memory name, string memory symbol) ERC20(name, symbol) {\n        _setupRole(OWNER_ROLE, _msgSender());\n\n        _setupRole(ADMIN_ROLE, _msgSender());\n        _setupRole(DELEGATE_ROLE, _msgSender());\n        _setRoleAdmin(DELEGATE_ROLE, ADMIN_ROLE);\n    }\n\n    /**\n     * @dev Creates `amount` new tokens for `to`.\n     *\n     * See {ERC20-_mint}.\n     *\n     * Requirements:\n     *\n     * - the caller must have the `MINTER_ROLE`.\n     */\n    function mint(address to, uint256 amount) public virtual {\n        require(hasRole(DELEGATE_ROLE, _msgSender()), \"ThroneERC20: must have minter role to mint\");\n        _mint(to, amount);\n    }\n\n    /**\n     * @dev Pauses all token transfers.\n     *\n     * See {ERC20Pausable} and {Pausable-_pause}.\n     *\n     * Requirements:\n     *\n     * - the caller must have the `PAUSER_ROLE`.\n     */\n    function pause() public virtual {\n        require(hasRole(ADMIN_ROLE, _msgSender()), \"ThroneERC20: must have pauser role to pause\");\n        _pause();\n    }\n\n    /**\n     * @dev Unpauses all token transfers.\n     *\n     * See {ERC20Pausable} and {Pausable-_unpause}.\n     *\n     * Requirements:\n     *\n     * - the caller must have the `PAUSER_ROLE`.\n     */\n    function unpause() public virtual {\n        require(hasRole(ADMIN_ROLE, _msgSender()), \"ThroneERC20: must have pauser role to unpause\");\n        _unpause();\n    }\n\n    function _beforeTokenTransfer(address from, address to, uint256 amount) internal virtual override(ERC20, ERC20Pausable) {\n        super._beforeTokenTransfer(from, to, amount);\n    }\n\n    /**\n     * @dev Destroys `amount` tokens from the caller.\n     *\n     * See {ERC20-_burn}.\n     */\n    function burn(uint256 amount) public override {\n        require(hasRole(OWNER_ROLE, _msgSender()), \"ThroneERC20: must have owner role to unpause\");\n        super.burn(amount);\n    }\n\n    /**\n     * @dev Destroys `amount` tokens from `account`, deducting from the caller's\n     * allowance.\n     *\n     * See {ERC20-_burn} and {ERC20-allowance}.\n     *\n     * Requirements:\n     *\n     * - the caller must have allowance for ``accounts``'s tokens of at least\n     * `amount`.\n     */\n    function burnFrom(address account, uint256 amount) public override {\n        require(hasRole(OWNER_ROLE, _msgSender()), \"ThroneERC20: must have owner role to unpause\");\n        super.burnFrom(account, amount);\n    }\n}\n",
  "sourcePath": "/home/leyte/code/thr.one/erc-20/contracts/ThroneERC20.sol",
  "compiler": {
    "name": "solc",
    "version": "0.8.4+commit.c7e474f2.Emscripten.clang"
  },
  "schemaVersion": "3.4.1",
  "updatedAt": "2021-05-19T21:14:11.007Z",
  "networkType": "ethereum",
  "devdoc": {
    "kind": "dev",
    "methods": {
      "allowance(address,address)": {
        "details": "See {IERC20-allowance}."
      },
      "approve(address,uint256)": {
        "details": "See {IERC20-approve}. Requirements: - `spender` cannot be the zero address."
      },
      "balanceOf(address)": {
        "details": "See {IERC20-balanceOf}."
      },
      "burn(uint256)": {
        "details": "Destroys `amount` tokens from the caller. See {ERC20-_burn}."
      },
      "burnFrom(address,uint256)": {
        "details": "Destroys `amount` tokens from `account`, deducting from the caller's allowance. See {ERC20-_burn} and {ERC20-allowance}. Requirements: - the caller must have allowance for ``accounts``'s tokens of at least `amount`."
      },
      "constructor": {
        "details": "Grants `OWNER_ROLE`, `ADMIN_ROLE` and `DELEGATE_ROLE` to the account that deploys the contract. See {ERC20-constructor}."
      },
      "decimals()": {
        "details": "Returns the number of decimals used to get its user representation. For example, if `decimals` equals `2`, a balance of `505` tokens should be displayed to a user as `5,05` (`505 / 10 ** 2`). Tokens usually opt for a value of 18, imitating the relationship between Ether and Wei. This is the value {ERC20} uses, unless this function is overridden; NOTE: This information is only used for _display_ purposes: it in no way affects any of the arithmetic of the contract, including {IERC20-balanceOf} and {IERC20-transfer}."
      },
      "decreaseAllowance(address,uint256)": {
        "details": "Atomically decreases the allowance granted to `spender` by the caller. This is an alternative to {approve} that can be used as a mitigation for problems described in {IERC20-approve}. Emits an {Approval} event indicating the updated allowance. Requirements: - `spender` cannot be the zero address. - `spender` must have allowance for the caller of at least `subtractedValue`."
      },
      "getRoleAdmin(bytes32)": {
        "details": "Returns the admin role that controls `role`. See {grantRole} and {revokeRole}. To change a role's admin, use {_setRoleAdmin}."
      },
      "getRoleMember(bytes32,uint256)": {
        "details": "Returns one of the accounts that have `role`. `index` must be a value between 0 and {getRoleMemberCount}, non-inclusive. Role bearers are not sorted in any particular way, and their ordering may change at any point. WARNING: When using {getRoleMember} and {getRoleMemberCount}, make sure you perform all queries on the same block. See the following https://forum.openzeppelin.com/t/iterating-over-elements-on-enumerableset-in-openzeppelin-contracts/2296[forum post] for more information."
      },
      "getRoleMemberCount(bytes32)": {
        "details": "Returns the number of accounts that have `role`. Can be used together with {getRoleMember} to enumerate all bearers of a role."
      },
      "grantRole(bytes32,address)": {
        "details": "Overload {grantRole} to track enumerable memberships"
      },
      "hasRole(bytes32,address)": {
        "details": "Returns `true` if `account` has been granted `role`."
      },
      "increaseAllowance(address,uint256)": {
        "details": "Atomically increases the allowance granted to `spender` by the caller. This is an alternative to {approve} that can be used as a mitigation for problems described in {IERC20-approve}. Emits an {Approval} event indicating the updated allowance. Requirements: - `spender` cannot be the zero address."
      },
      "mint(address,uint256)": {
        "details": "Creates `amount` new tokens for `to`. See {ERC20-_mint}. Requirements: - the caller must have the `MINTER_ROLE`."
      },
      "name()": {
        "details": "Returns the name of the token."
      },
      "pause()": {
        "details": "Pauses all token transfers. See {ERC20Pausable} and {Pausable-_pause}. Requirements: - the caller must have the `PAUSER_ROLE`."
      },
      "paused()": {
        "details": "Returns true if the contract is paused, and false otherwise."
      },
      "renounceRole(bytes32,address)": {
        "details": "Overload {renounceRole} to track enumerable memberships"
      },
      "revokeRole(bytes32,address)": {
        "details": "Overload {revokeRole} to track enumerable memberships"
      },
      "supportsInterface(bytes4)": {
        "details": "See {IERC165-supportsInterface}."
      },
      "symbol()": {
        "details": "Returns the symbol of the token, usually a shorter version of the name."
      },
      "totalSupply()": {
        "details": "See {IERC20-totalSupply}."
      },
      "transfer(address,uint256)": {
        "details": "See {IERC20-transfer}. Requirements: - `recipient` cannot be the zero address. - the caller must have a balance of at least `amount`."
      },
      "transferFrom(address,address,uint256)": {
        "details": "See {IERC20-transferFrom}. Emits an {Approval} event indicating the updated allowance. This is not required by the EIP. See the note at the beginning of {ERC20}. Requirements: - `sender` and `recipient` cannot be the zero address. - `sender` must have a balance of at least `amount`. - the caller must have allowance for ``sender``'s tokens of at least `amount`."
      },
      "unpause()": {
        "details": "Unpauses all token transfers. See {ERC20Pausable} and {Pausable-_unpause}. Requirements: - the caller must have the `PAUSER_ROLE`."
      }
    },
    "version": 1
  },
  "userdoc": {
    "kind": "user",
    "methods": {},
    "version": 1
  }
}